:0E050700434C4F434B3A0020203A20203A004C
:10049E00020E00000212000002100000020A00000C
:0804AE00020C0000020800002E
:1002F9001204B71204E47BFF7A0579077D017F01B7
:100309001204237BFF7A05790E7D017F02120423F3
:10031900751802AB11AA107D017F021204817518AC
:1003290002AB13AA127D047F02120481751802AB75
:0C0339000FAA0E7D077F0212048180D401
:03000B0002028B63
:04028B00C0E0C0D03F
:10028F00758A66758CFC0509E50970020508C3942B
:10029F00E8E5089403404E750800750900050FE561
:1002AF000F7002050E943CE50E6480948040367505
:1002BF000E00750F000513E51370020512943CE54F
:1002CF001264809480401E7512007513000511E5AD
:1002DF0011700205109418E5106480948040067523
:0502EF00100075110074
:0502F400D0D0D0E03283
:1004B7005389F0438901C28DD28C758A66758CFC8D
:0704C700D2A9D2AFC2B92295
:09046400D3EF9400EE9400401364
:0C046D00752E02752FEFD52FFDD52EFA4D
:08047900EF1F70E71E80E42272
:0604F800C2A58F80D2A70F
:0804FE007F027EEFDEFEDFFC51
:0105060022D2
:0A051500C2A61204F8C2A70204FEF9
:10044600CFCDCFCECCCE1201AA7C007D0A1201AA56
:04045600ED2430FF62
:0A045A00D2A61204F8C2A70204FEA5
:1004CE00AE07BE0104ED148006BE0209ED243F44C2
:0604DE0080FF120515224B
:1004E4007F381205157F0C1205157F061205157F3E
:0404F40001020515E7
:0A051F00AC031204CEAF0402045A2C
:060423008B148A158916F6
:100429001204CEE4FDAB14AA15A9168D82758300BA
:0C04390012016BFF600612045A0D80E9EE
:010445002294
:0C03F0007F0AEA24FFFDE434FFFC7E00DD
:0803FC008E198F1A8C1B8D1C59
:100404007F017E00E4FBEBC3951CE51B6480F8745C
:0E0414008098500AAC19AD1A1201980B80E8BE
:0104220022B7
:040481008A168B1735
:100485001204CEAA18EAD39400400D1203F0AC165C
:08049500AD171204461A80EDB8
:01049D00223C
:100345001204CEC3EA64809480400B7F2B12045ABA
:100355008A228B23800E7F2D12045AC3E49BF5233A
:10036500E49AF522AA21EAD39400400D1203F0ACD9
:0903750022AD231204461A80EDAA
:01037E00225C
:04037F008A268B2718
:100383001204CEAA28EAD3940040297F101203F264
:10039300AC26AD27CFCDCFCECCCE1201AAEF540FD2
:1003A300FEC3940AEE5004243080022437FF120463
:0403B3005A1A80D181
:0103B7002223
:0403B8008A2B8B2CD5
:1003BC001204CEAA2DEAD394004028EA24FFFDE4CF
:1003CC0034FFFC7F027E001203FCAC2BAD2CCFCD96
:1003DC00CFCECCCE1201AAEF54012430FF12045A16
:0303EC001A80D2A2
:0103EF0022EB
:10000E00E4F5307590FFC2932097147F14FE80079D
:10001E002097097F147E0012046480F4753001204D
:10002E00961180032096097F147E0012046480F4DA
:10003E0075300520951180032095097F147E0012DE
:10004E00046480F475300920941180032094097F94
:10005E00147E0012046480F475300D7590FFC29208
:10006E0020971180032097097F147E00120464806C
:10007E00F475300220961180032096097F147E00BD
:10008E0012046480F47530062095118003209509C2
:10009E007F147E0012046480F475300A209411805F
:1000AE00032094097F147E0012046480F475300ED0
:1000BE007590FFC29120971180032097097F147EBF
:1000CE000012046480F4753003209611800320968C
:1000DE00097F147E0012046480F475300720951198
:1000EE0080032095097F147E0012046480F475301D
:1000FE000B20941180032094097F147E0012046457
:10010E0080F475300F7590FFC290209711800320F8
:10011E0097097F147E0012046480F47530042096D3
:10012E001180032096097F147E0012046480F475FA
:10013E00300820951180032095097F147E0012044B
:10014E006480F475300C20941180032094097F1480
:0C015E007E0012046480F4753010AF3095
:01016A002272
:030000000201FFFB
:0C01FF00787FE4F6D8FD758130020246DE
:10016B00BB010CE58229F582E5833AF583E0225049
:10017B0006E92582F8E622BBFE06E92582F8E22293
:0D018B00E58229F582E5833AF583E49322AD
:10019800EF8DF0A4A8F0CF8CF0A428CE8DF0A42E7B
:0201A800FE2235
:1001AA00BC000BBE0029EF8DF084FFADF022E4CC39
:1001BA00F875F008EF2FFFEE33FEEC33FCEE9DEC02
:1001CA00984005FCEE9DFE0FD5F0E9E4CEFD22ED48
:1001DA00F8F5F0EE8420D21CFEADF075F008EF2F92
:1001EA00FFED33FD4007985006D5F0F222C398FD83
:0501FA000FD5F0EA2220
:10020B000202F9E493A3F8E493A34003F68001F20E
:10021B0008DFF48029E493A3F85407240CC8C333F4
:10022B00C4540F4420C8834004F456800146F6DFC3
:10023B00E4800B010204081020408090049EE47EB1
:10024B00019360BCA3FF543F30E509541FFEE493B8
:10025B00A360010ECF54C025E060A840B8E493A37F
:10026B00FAE493A3F8E493A3C8C582C8CAC583CAAA
:10027B00F0A3C8C582C8CAC583CADFE9DEE780BE62
:0104B6000045
:00000001FF
