:100003007D017C007F0712013AE4FDFC7F081201A9
:100013003A7FE87E031201957D097C007F08120177
:100023003A7FE87E031201957D087C007F08120168
:100033003A7FE87E031201957D077C007F08120159
:100043003A7FE87E031201957D067C007F0812014A
:100053003A7FE87E031201957D057C007F0812013B
:100063003A7FE87E031201957D047C007F0812012C
:100073003A7FE87E031201957D037C007F0812011D
:100083003A7FE87E031201957D027C007F0812010E
:100093003A7FE87E031201957D017C007F081201FF
:0B00A3003A7FE87E0312019502000383
:09019500D3EF9400EE9400401336
:0C019E00751C02751DEFD51DFDD51CFA67
:0801AA00EF1F70E71E80E42244
:1001B2001408003F0006005B004F0066006D007DE2
:0601C2000007007F006F42
:10013A00BF0104D2A4801ABF0204D2A4801EBF0346
:10014A0004D2A48022BF0404D2A48026BF0508C218
:10015A00A4D2A3D2A2801FBF0608C2A4D2A3C2A25D
:10016A008014BF0708C2A4C2A3D2A28009BF08068E
:10017A00C2A4C2A3C2A2ED25E02408F808E6F580CD
:0B018A007F017E00120195E4F5802249
:030000000200AE4D
:0C00AE00787FE4F6D8FD75811D0200F596
:1000BA00020003E493A3F8E493A34003F68001F259
:1000CA0008DFF48029E493A3F85407240CC8C33347
:1000DA00C4540F4420C8834004F456800146F6DF16
:1000EA00E4800B01020408102040809001B2E47EF3
:1000FA00019360BCA3FF543F30E509541FFEE4930B
:10010A00A360010ECF54C025E060A840B8E493A3D1
:10011A00FAE493A3F8E493A3C8C582C8CAC583CAFC
:10012A00F0A3C8C582C8CAC583CADFE9DEE780BEB4
:0101C8000036
:00000001FF
