:0C04C1000211000002130000020F0000F6
:10038F0075A0FE12047112000E7511008F12E51286
:10039F00451160F2E5126401451170EA0514E51488
:1003AF0070020513C39402E513940040D9E4F513CA
:0403BF00F51480D2DF
:03000B0002028B63
:0B028B00C0E0C0D075D000C000C0076C
:10029600758A66758CFC0510E5107002050FC3940F
:1002A600F4E50F9401402E750F00751000E5144516
:1002B60013700DAFA07801EF08800123D8FDF5A0DB
:1002C600E51464014513700DAFA07801EF088001B5
:0502D60003D8FDF5A0B6
:0902DB00D007D000D0D0D0E032F1
:09043700D3EF9400EE9400401391
:0C044000752C02752DEFD52DFDD52CFA82
:08044C00EF1F70E71E80E4229F
:0604B200C2A58F80D2A755
:0804B8007F027EEFDEFEDFFC97
:0104C0002219
:0A04CE00C2A61204B2C2A70204B8CD
:10041900CFCDCFCECCCE1201AA7C007D0A1201AA83
:04042900ED2430FF8F
:0A042D00D2A61204B2C2A70204B85E
:10048800AE07BE0104ED148006BE0209ED243F4408
:0604980080FF1204CE22D9
:10049E007F381204CE7F0C1204CE7F061204CE7F5C
:0404AE00010204CE75
:0A04D800AC03120488AF0402042DE7
:0603F6008B288A29892AE8
:1003FC00120488E4FDAB28AA29A92A8D82758300F2
:0C040C0012016BFF600612042D0D80E948
:0104180022C1
:0C03C3007F0AEA24FFFDE434FFFC7E000A
:0803CF008E248F258C268D275A
:1003D7007F017E00E4FBEBC39527E5266480F87474
:0E03E7008098500AAC24AD251201980B80E8D6
:0103F50022E5
:040454008A178B1860
:10045800120488AA19EAD39400400D1203C3AC17FA
:08046800AD181204191A80ED11
:010470002269
:1002E400120488C3EA64809480400B7F2B12042D8F
:1002F4008A0D8B0E800E7F2D12042DC3E49BF50E08
:10030400E49AF50DAA0CEAD39400400D1203C3AC91
:090314000DAD0E1204191A80ED62
:01031D0022BD
:04031E008A1C8B1D8D
:10032200120488AA1EEAD3940040297F101203C542
:10033200AC1CAD1DCFCDCFCECCCE1201AAEF540F47
:10034200FEC3940AEE5004243080022437FF1204C4
:040352002D1A80D10F
:010356002284
:040357008A218B224A
:10035B00120488AA23EAD394004028EA24FFFDE480
:10036B0034FFFC7F027E001203CFAC21AD22CFCD38
:10037B00CFCECCCE1201AAEF54012430FF12042DA4
:03038B001A80D203
:01038E00224C
:100471005389F0438901C28DD28C758A66758CFCD3
:07048100D2A9D2AFC2B922DB
:10000E00E4F52B7590FFC2932097147F14FE8007A2
:10001E002097097F147E0012043780F4752B01207F
:10002E00961180032096097F147E0012043780F407
:10003E00752B0520951180032095097F147E0012E3
:10004E00043780F4752B0920941180032094097FC6
:10005E00147E0012043780F4752B0D7590FFC2923A
:10006E0020971180032097097F147E001204378099
:10007E00F4752B0220961180032096097F147E00C2
:10008E0012043780F4752B062095118003209509F4
:10009E007F147E0012043780F4752B0A2094118091
:1000AE00032094097F147E0012043780F4752B0E02
:1000BE007590FFC29120971180032097097F147EBF
:1000CE000012043780F4752B0320961180032096BE
:1000DE00097F147E0012043780F4752B07209511CA
:1000EE0080032095097F147E0012043780F4752B4F
:1000FE000B20941180032094097F147E0012043784
:10010E0080F4752B0F7590FFC290209711800320FD
:10011E0097097F147E0012043780F4752B04209605
:10012E001180032096097F147E0012043780F47527
:10013E002B0820951180032095097F147E00120450
:10014E003780F4752B0C20941180032094097F14B2
:0C015E007E0012043780F4752B10AF2BCC
:01016A002272
:030000000201FFFB
:0C01FF00787FE4F6D8FD75812D020246E1
:10016B00BB010CE58229F582E5833AF583E0225049
:10017B0006E92582F8E622BBFE06E92582F8E22293
:0D018B00E58229F582E5833AF583E49322AD
:10019800EF8DF0A4A8F0CF8CF0A428CE8DF0A42E7B
:0201A800FE2235
:1001AA00BC000BBE0029EF8DF084FFADF022E4CC39
:1001BA00F875F008EF2FFFEE33FEEC33FCEE9DEC02
:1001CA00984005FCEE9DFE0FD5F0E9E4CEFD22ED48
:1001DA00F8F5F0EE8420D21CFEADF075F008EF2F92
:1001EA00FFED33FD4007985006D5F0F222C398FD83
:0501FA000FD5F0EA2220
:10020B0002038FE493A3F8E493A34003F68001F277
:10021B0008DFF48029E493A3F85407240CC8C333F4
:10022B00C4540F4420C8834004F456800146F6DFC3
:10023B00E4800B01020408102040809004C1E47E8E
:10024B00019360BCA3FF543F30E509541FFEE493B8
:10025B00A360010ECF54C025E060A840B8E493A37F
:10026B00FAE493A3F8E493A3C8C582C8CAC583CAAA
:10027B00F0A3C8C582C8CAC583CADFE9DEE780BE62
:0104CD00002E
:00000001FF
