:1005270050415353574F52443A00303030303030F7
:100537003030004552524F520049204C4F5645200B
:10054700594F55005A686F7579757368616E000069
:100557000000050002000000010003000100040084
:0F05670000000000000000000000000000000085
:10000300780A7C007D007BFF7A0579567E007F109D
:10001300120310781A7C007D007BFF7A0579667ED7
:10002300007F10120310E4F52AF52BF52CF52DF5BE
:100033002EF52F1206E57BFF7A0579277D017F01D7
:100043001206547BFF7A0579317D017F0212065433
:100053001203CA7508008F09C3E5099401E50894E2
:10006300004058D3E509940AE5089400504DE52B68
:100073009407E52A94005043E52D9405E52C94005C
:100083005039AE087C007D0A1203758C088D09AFC8
:100093002BEF25E0241AF8A60808A609EF25E0248B
:1000A3001AF8E6FA08E6FBE52B04FD7534017F0236
:1000B3001206B2052BE52B7002052AE509640B45F0
:1000C300086003020173D3E52D9405E52C940040E9
:1000D30003020173E4F52EF52FAF2FEF25E0241A69
:1000E300F8E6FC08E6FDEF25E0240AF8E6FE08E65C
:1000F3006D7002EE6C6040E4F52AF52B1206E57B89
:10010300FF7A05793A7D017F01120654052DE52D0D
:100113007002052C7F887E131206957BFF7A057982
:10012300277D017F011206547BFF7A0579317D011A
:100133007F021206548039E52F6407452E701D1285
:1001430006E57BFF7A0579407D017F011206547B2A
:10015300FF7A05794B7D017F02120654052FE52FA7
:100163007002052ED39407E52E940050030200DCA1
:10017300E509640C45087048D3E52D9405E52C94F6
:1001830000503DE4F52EF52FE52F25E0241AF8E481
:10019300F608F6052FE52F7002052E6408452E702C
:1001A300E7E4F52AF52B7BFF7A0579277D017F01AB
:1001B3001206547BFF7A0579317D017F02120654C2
:1001C300E509640D45086003020053D3E52D94054A
:1001D300E52C94004003020053E52B9400E52A9498
:1001E300005003020053E52B152B7002152A7BFFE9
:1001F3007A0579277D017F011206547BFF7A057901
:10020300317D017F02120654E4F52EF52FC3E52F4D
:10021300952BE52E952A4003020053AF2FEF25E0DF
:10022300241AF8E6FA08E6FBEF04FD7534017F02B1
:0D0233001206B2052FE52F70D4052E80D0E5
:09069500D3EF9400EE9400401331
:0C069E007531027532EFD532FDD531FA0E
:0806AA00EF1F70E71E80E4223F
:0606F900C2A58F80D2A70C
:0806FF007F027EEFDEFEDFFC4E
:0107070022CF
:0A071400C2A61206F9C2A70206FFF2
:10067700CFCDCFCECCCE1203757C007D0A12037589
:04068700ED2430FF2F
:0A068B00D2A61206F9C2A70206FF6C
:1006CF00AE07BE0104ED148006BE0209ED243F44BF
:0606DF0080FF1207142247
:1006E5007F381207147F0C1207147F061207147F38
:0406F50001020714E3
:0A071E00AC031206CFAF0402068BF5
:060654008B308A3189326F
:10065A001206CFE4FDAB30AA31A9328D8275830030
:0C066A00120336FF600612068B0D80E9BB
:010676002261
:0C0621007F0AEA24FFFDE434FFFC7E00A9
:08062D008E358F368C378D38B5
:100635007F017E00E4FBEBC39538E5376480F874F1
:0E0645008098500AAC35AD361203630B80E886
:010653002284
:0406B2008A328B33CA
:1006B6001206CFAA34EAD39400400D120621AC32BA
:0806C600AD331206771A80ED36
:0106CE002209
:100576001206CFC3EA64809480400B7F2B12068B51
:100586008A3E8B3F800E7F2D12068BC3E49BF53F80
:10059600E49AF53EAA3DEAD39400400D120621AC3A
:0905A6003EAD3F1206771A80ED0C
:0105AF002229
:0405B0008A428B43AD
:1005B4001206CFAA44EAD3940040297F10120623DE
:1005C400AC42AD43CFCDCFCECCCE120375EF540F9A
:1005D400FEC3940AEE5004243080022437FF12062E
:0405E4008B1A80D11D
:0105E80022F0
:0405E9008A478B486A
:1005ED001206CFAA49EAD394004028EA24FFFDE47D
:1005FD0034FFFC7F027E0012062DAC47AD48CFCDF7
:10060D00CFCECCCE120375EF54012430FF12068BE2
:03061D001A80D26E
:0106200022B7
:1003CA00E4F5307590FFC2932097147F14FE8007DE
:1003DA002097097F147E0012069580F4753001205B
:1003EA00961180032096097F147E0012069580F4E8
:1003FA0075300520951180032095097F147E00121F
:10040A00069580F475300920941180032094097FA1
:10041A00147E0012069580F475300D7590FFC29215
:10042A0020971180032097097F147E001206958079
:10043A00F475300220961180032096097F147E00FD
:10044A0012069580F47530062095118003209509CF
:10045A007F147E0012069580F475300A209411806C
:10046A00032094097F147E0012069580F475300EDD
:10047A007590FFC29120971180032097097F147EFF
:10048A000012069580F47530032096118003209699
:10049A00097F147E0012069580F4753007209511A5
:1004AA0080032095097F147E0012069580F475302A
:1004BA000B20941180032094097F147E0012069564
:1004CA0080F475300F7590FFC29020971180032039
:1004DA0097097F147E0012069580F47530042096E1
:1004EA001180032096097F147E0012069580F47508
:1004FA00300820951180032095097F147E0012068A
:10050A009580F475300C20941180032094097F148F
:0C051A007E0012069580F4753010AF30A2
:0105260022B2
:03000000020708EC
:0C070800787FE4F6D8FD758149020003FB
:10024000E709F608DFFA8046E709F208DFFA803EA0
:1002500088828C83E709F0A3DFFA8032E309F6088D
:10026000DFFA8078E309F208DFFA807088828C83F5
:10027000E309F0A3DFFA806489828A83E0A3F608A9
:10028000DFFA805889828A83E0A3F208DFFA804C83
:1002900080D280FA80C680D4806980F2803380105A
:1002A00080A680EA809A80A880DA80E280CA8033C3
:1002B00089828A83ECFAE493A3C8C582C8CCC5833B
:1002C000CCF0A3C8C582C8CCC583CCDFE9DEE7800B
:1002D0000D89828A83E493A3F608DFF9ECFAA9F08A
:1002E000EDFB2289828A83ECFAE0A3C8C582C8CCE0
:1002F000C583CCF0A3C8C582C8CCC583CCDFEADEF9
:10030000E880DB89828A83E493A3F208DFF980CC5A
:1003100088F0EF60010E4E60C388F0ED2402B40453
:100320000050B9F582EB2402B4040050AF232345FA
:060330008223900290738D
:10033600BB010CE58229F582E5833AF583E022507C
:1003460006E92582F8E622BBFE06E92582F8E222C6
:0D035600E58229F582E5833AF583E49322E0
:10036300EF8DF0A4A8F0CF8CF0A428CE8DF0A42EAE
:02037300FE2268
:10037500BC000BBE0029EF8DF084FFADF022E4CC6C
:10038500F875F008EF2FFFEE33FEEC33FCEE9DEC35
:10039500984005FCEE9DFE0FD5F0E9E4CEFD22ED7B
:1003A500F8F5F0EE8420D21CFEADF075F008EF2FC5
:1003B500FFED33FD4007985006D5F0F222C398FDB6
:0503C5000FD5F0EA2253
:00000001FF
