:10016F001408003F0006005B004F0066006D007D25
:06017F000007007F006F85
:04014E007FE87E03C5
:09015200D3EF9400EE9400401379
:0C015B00751C02751DEFD51DFDD51CFAAA
:08016700EF1F70E71E80E42287
:0300F0001D7F0869
:1000F300BF0104D2A4801ABF0204D2A4801EBF038E
:1001030004D2A48022BF0404D2A48026BF0508C25F
:10011300A4D2A3D2A2801FBF0608C2A4D2A3C2A2A4
:100123008014BF0708C2A4C2A3D2A28009BF0806D5
:10013300C2A4C2A3C2A2ED25E02408F808E6F58014
:0B0143007F017E00120152E4F58022D3
:10008F007D017C007F071200F31200F012014E7DFC
:10009F00097F081200F312014E1200F012014E1DDB
:1000AF007F081200F312014E1D7F081200F3120198
:1000BF004E1D7F081200F312014E1D7F081200F330
:1000CF0012014E1D7F081200F312014E1D7F081200
:1000DF0000F312014E1D7F081200F312014E0200B1
:0100EF008F81
:03000000020003F8
:0C000300787FE4F6D8FD75811D02004AEC
:10000F0002008FE493A3F8E493A34003F68001F278
:10001F0008DFF48029E493A3F85407240CC8C333F2
:10002F00C4540F4420C8834004F456800146F6DFC1
:10003F00E4800B010204081020408090016FE47EE1
:10004F00019360BCA3FF543F30E509541FFEE493B6
:10005F00A360010ECF54C025E060A840B8E493A37D
:10006F00FAE493A3F8E493A3C8C582C8CAC583CAA8
:10007F00F0A3C8C582C8CAC583CADFE9DEE780BE60
:010185000079
:00000001FF
