:04006A007F147E0081
:09006E00D3EF9400EE940040135E
:0C0077007508027509EFD509FDD508FADF
:08008300EF1F70E71E80E4226C
:10000300E4FDFC75A0FE20B02C12006A30B0FD1296
:10001300006A0DBD00010CC3ED9408EC648094806C
:100023004003E4FCFDAF057401A807088002C33355
:10003300D8FCF4F5A020B1CE12006A30B1FD120055
:100043006AED1D70011CD3ED94FFEC6480947F5026
:10005300047C007D07AF057401A807088002C33341
:07006300D8FCF4F5A0809F1A
:0300000002008B70
:0C008B00787FE4F6D8FD758109020003BF
:00000001FF
